{
  "_format": "hh-sol-artifact-1",
  "contractName": "ElectionFact",
  "sourceName": "contracts/Election.sol",
  "abi": [
    {
      "inputs": [
        {
          "internalType": "address",
          "name": "metamask",
          "type": "address"
        },
        {
          "internalType": "string",
          "name": "election_name",
          "type": "string"
        },
        {
          "internalType": "string",
          "name": "election_description",
          "type": "string"
        }
      ],
      "name": "createElection",
      "outputs": [],
      "stateMutability": "nonpayable",
      "type": "function"
    },
    {
      "inputs": [
        {
          "internalType": "address",
          "name": "metamask",
          "type": "address"
        }
      ],
      "name": "getDeployedElection",
      "outputs": [
        {
          "internalType": "address",
          "name": "",
          "type": "address"
        },
        {
          "internalType": "string",
          "name": "",
          "type": "string"
        },
        {
          "internalType": "string",
          "name": "",
          "type": "string"
        }
      ],
      "stateMutability": "view",
      "type": "function"
    }
  ],
  "bytecode": "0x608060405234801561001057600080fd5b5061287f806100206000396000f3fe60806040523480156200001157600080fd5b50600436106200003a5760003560e01c80638ef7db11146200003f578063c67596ff1462000077575b600080fd5b6200005d600480360381019062000057919062000672565b62000097565b6040516200006e9392919062000790565b60405180910390f35b6200009560048036038101906200008f9190620006a4565b620003a8565b005b600060608060008060008673ffffffffffffffffffffffffffffffffffffffff1673ffffffffffffffffffffffffffffffffffffffff16815260200190815260200160002060000160009054906101000a900473ffffffffffffffffffffffffffffffffffffffff169050600073ffffffffffffffffffffffffffffffffffffffff168173ffffffffffffffffffffffffffffffffffffffff1614156200018d576000604051806020016040528060008152506040518060400160405280601381526020017f43726561746520616e20656c656374696f6e2e0000000000000000000000000081525093509350935050620003a1565b6000808673ffffffffffffffffffffffffffffffffffffffff1673ffffffffffffffffffffffffffffffffffffffff16815260200190815260200160002060000160009054906101000a900473ffffffffffffffffffffffffffffffffffffffff166000808773ffffffffffffffffffffffffffffffffffffffff1673ffffffffffffffffffffffffffffffffffffffff1681526020019081526020016000206001016000808873ffffffffffffffffffffffffffffffffffffffff1673ffffffffffffffffffffffffffffffffffffffff1681526020019081526020016000206002018180546200027f90620008cf565b80601f0160208091040260200160405190810160405280929190818152602001828054620002ad90620008cf565b8015620002fe5780601f10620002d257610100808354040283529160200191620002fe565b820191906000526020600020905b815481529060010190602001808311620002e057829003601f168201915b505050505091508080546200031390620008cf565b80601f01602080910402602001604051908101604052809291908181526020018280546200034190620008cf565b8015620003925780601f10620003665761010080835404028352916020019162000392565b820191906000526020600020905b8154815290600101906020018083116200037457829003601f168201915b50505050509050935093509350505b9193909250565b6000338383604051620003bb906200051f565b620003c99392919062000790565b604051809103906000f080158015620003e6573d6000803e3d6000fd5b509050806000808673ffffffffffffffffffffffffffffffffffffffff1673ffffffffffffffffffffffffffffffffffffffff16815260200190815260200160002060000160006101000a81548173ffffffffffffffffffffffffffffffffffffffff021916908373ffffffffffffffffffffffffffffffffffffffff160217905550826000808673ffffffffffffffffffffffffffffffffffffffff1673ffffffffffffffffffffffffffffffffffffffff1681526020019081526020016000206001019080519060200190620004c09291906200052d565b50816000808673ffffffffffffffffffffffffffffffffffffffff1673ffffffffffffffffffffffffffffffffffffffff1681526020019081526020016000206002019080519060200190620005189291906200052d565b5050505050565b611e7180620009d983390190565b8280546200053b90620008cf565b90600052602060002090601f0160209004810192826200055f5760008555620005ab565b82601f106200057a57805160ff1916838001178555620005ab565b82800160010185558215620005ab579182015b82811115620005aa5782518255916020019190600101906200058d565b5b509050620005ba9190620005be565b5090565b5b80821115620005d9576000816000905550600101620005bf565b5090565b6000620005f4620005ee8462000804565b620007db565b9050828152602081018484840111156200061357620006126200099e565b5b620006208482856200088a565b509392505050565b6000813590506200063981620009be565b92915050565b600082601f83011262000657576200065662000999565b5b813562000669848260208601620005dd565b91505092915050565b6000602082840312156200068b576200068a620009a8565b5b60006200069b8482850162000628565b91505092915050565b600080600060608486031215620006c057620006bf620009a8565b5b6000620006d08682870162000628565b935050602084013567ffffffffffffffff811115620006f457620006f3620009a3565b5b62000702868287016200063f565b925050604084013567ffffffffffffffff811115620007265762000725620009a3565b5b62000734868287016200063f565b9150509250925092565b620007498162000856565b82525050565b60006200075c826200083a565b62000768818562000845565b93506200077a81856020860162000899565b6200078581620009ad565b840191505092915050565b6000606082019050620007a760008301866200073e565b8181036020830152620007bb81856200074f565b90508181036040830152620007d181846200074f565b9050949350505050565b6000620007e7620007fa565b9050620007f5828262000905565b919050565b6000604051905090565b600067ffffffffffffffff8211156200082257620008216200096a565b5b6200082d82620009ad565b9050602081019050919050565b600081519050919050565b600082825260208201905092915050565b600062000863826200086a565b9050919050565b600073ffffffffffffffffffffffffffffffffffffffff82169050919050565b82818337600083830152505050565b60005b83811015620008b95780820151818401526020810190506200089c565b83811115620008c9576000848401525b50505050565b60006002820490506001821680620008e857607f821691505b60208210811415620008ff57620008fe6200093b565b5b50919050565b6200091082620009ad565b810181811067ffffffffffffffff821117156200093257620009316200096a565b5b80604052505050565b7f4e487b7100000000000000000000000000000000000000000000000000000000600052602260045260246000fd5b7f4e487b7100000000000000000000000000000000000000000000000000000000600052604160045260246000fd5b600080fd5b600080fd5b600080fd5b600080fd5b6000601f19601f8301169050919050565b620009c98162000856565b8114620009d557600080fd5b5056fe60806040523480156200001157600080fd5b5060405162001e7138038062001e71833981810160405281019062000037919062000212565b826000806101000a81548173ffffffffffffffffffffffffffffffffffffffff021916908373ffffffffffffffffffffffffffffffffffffffff16021790555081600190805190602001906200008f929190620000cd565b508060029080519060200190620000a8929190620000cd565b506001600360006101000a81548160ff0219169083151502179055505050506200047e565b828054620000db9062000375565b90600052602060002090601f016020900481019282620000ff57600085556200014b565b82601f106200011a57805160ff19168380011785556200014b565b828001600101855582156200014b579182015b828111156200014a5782518255916020019190600101906200012d565b5b5090506200015a91906200015e565b5090565b5b80821115620001795760008160009055506001016200015f565b5090565b6000620001946200018e84620002d5565b620002ac565b905082815260208101848484011115620001b357620001b262000444565b5b620001c08482856200033f565b509392505050565b600081519050620001d98162000464565b92915050565b600082601f830112620001f757620001f66200043f565b5b8151620002098482602086016200017d565b91505092915050565b6000806000606084860312156200022e576200022d6200044e565b5b60006200023e86828701620001c8565b935050602084015167ffffffffffffffff81111562000262576200026162000449565b5b6200027086828701620001df565b925050604084015167ffffffffffffffff81111562000294576200029362000449565b5b620002a286828701620001df565b9150509250925092565b6000620002b8620002cb565b9050620002c68282620003ab565b919050565b6000604051905090565b600067ffffffffffffffff821115620002f357620002f262000410565b5b620002fe8262000453565b9050602081019050919050565b600062000318826200031f565b9050919050565b600073ffffffffffffffffffffffffffffffffffffffff82169050919050565b60005b838110156200035f57808201518184015260208101905062000342565b838111156200036f576000848401525b50505050565b600060028204905060018216806200038e57607f821691505b60208210811415620003a557620003a4620003e1565b5b50919050565b620003b68262000453565b810181811067ffffffffffffffff82111715620003d857620003d762000410565b5b80604052505050565b7f4e487b7100000000000000000000000000000000000000000000000000000000600052602260045260246000fd5b7f4e487b7100000000000000000000000000000000000000000000000000000000600052604160045260246000fd5b600080fd5b600080fd5b600080fd5b600080fd5b6000601f19601f8301169050919050565b6200046f816200030b565b81146200047b57600080fd5b50565b6119e3806200048e6000396000f3fe608060405234801561001057600080fd5b50600436106100935760003560e01c8063b81c645311610066578063b81c645314610110578063cde9370f1461012c578063df15c37e14610160578063e8685ba11461017e578063ed836bc31461019c57610093565b806342b03cc91461009857806359f78468146100b457806365fc783c146100be5780636d6277f4146100dc575b600080fd5b6100b260048036038101906100ad9190611319565b6101bb565b005b6100bc6103ad565b005b6100c661049e565b6040516100d39190611678565b60405180910390f35b6100f660048036038101906100f191906113f0565b610504565b6040516101079594939291906115c9565b60405180910390f35b61012a6004803603810190610125919061141d565b610767565b005b610146600480360381019061014191906113f0565b610972565b6040516101579594939291906115c9565b60405180910390f35b610168610ca7565b6040516101759190611570565b60405180910390f35b610186611000565b6040516101939190611678565b60405180910390f35b6101a4611066565b6040516101b2929190611592565b60405180910390f35b60008054906101000a900473ffffffffffffffffffffffffffffffffffffffff1673ffffffffffffffffffffffffffffffffffffffff163373ffffffffffffffffffffffffffffffffffffffff1614610240576040517fe60de15100000000000000000000000000000000000000000000000000000000815260040160405180910390fd5b600360009054906101000a900460ff1661028f576040517f08c379a000000000000000000000000000000000000000000000000000000000815260040161028690611638565b60405180910390fd5b60006006600081819054906101000a900460ff16809291906102b090611822565b91906101000a81548160ff021916908360ff16021790555090506040518060a00160405280868152602001858152602001848152602001600060ff16815260200183815250600460008360ff1660ff168152602001908152602001600020600082015181600001908051906020019061032a9291906111dc565b5060208201518160010190805190602001906103479291906111dc565b5060408201518160020190805190602001906103649291906111dc565b5060608201518160030160006101000a81548160ff021916908360ff16021790555060808201518160040190805190602001906103a29291906111dc565b509050505050505050565b60008054906101000a900473ffffffffffffffffffffffffffffffffffffffff1673ffffffffffffffffffffffffffffffffffffffff163373ffffffffffffffffffffffffffffffffffffffff1614610432576040517fe60de15100000000000000000000000000000000000000000000000000000000815260040160405180910390fd5b600360009054906101000a900460ff16610481576040517f08c379a000000000000000000000000000000000000000000000000000000000815260040161047890611638565b60405180910390fd5b6000600360006101000a81548160ff021916908315150217905550565b6000600360009054906101000a900460ff166104ef576040517f08c379a00000000000000000000000000000000000000000000000000000000081526004016104e690611638565b60405180910390fd5b600660019054906101000a900460ff16905090565b6004602052806000526040600020600091509050806000018054610527906117bf565b80601f0160208091040260200160405190810160405280929190818152602001828054610553906117bf565b80156105a05780601f10610575576101008083540402835291602001916105a0565b820191906000526020600020905b81548152906001019060200180831161058357829003601f168201915b5050505050908060010180546105b5906117bf565b80601f01602080910402602001604051908101604052809291908181526020018280546105e1906117bf565b801561062e5780601f106106035761010080835404028352916020019161062e565b820191906000526020600020905b81548152906001019060200180831161061157829003601f168201915b505050505090806002018054610643906117bf565b80601f016020809104026020016040519081016040528092919081815260200182805461066f906117bf565b80156106bc5780601f10610691576101008083540402835291602001916106bc565b820191906000526020600020905b81548152906001019060200180831161069f57829003601f168201915b5050505050908060030160009054906101000a900460ff16908060040180546106e4906117bf565b80601f0160208091040260200160405190810160405280929190818152602001828054610710906117bf565b801561075d5780601f106107325761010080835404028352916020019161075d565b820191906000526020600020905b81548152906001019060200180831161074057829003601f168201915b5050505050905085565b600360009054906101000a900460ff166107b6576040517f08c379a00000000000000000000000000000000000000000000000000000000081526004016107ad90611638565b60405180910390fd5b600560008273ffffffffffffffffffffffffffffffffffffffff1673ffffffffffffffffffffffffffffffffffffffff16815260200190815260200160002060000160019054906101000a900460ff1615610846576040517f08c379a000000000000000000000000000000000000000000000000000000000815260040161083d90611658565b60405180910390fd5b60405180604001604052808360ff16815260200160011515815250600560008373ffffffffffffffffffffffffffffffffffffffff1673ffffffffffffffffffffffffffffffffffffffff16815260200190815260200160002060008201518160000160006101000a81548160ff021916908360ff16021790555060208201518160000160016101000a81548160ff0219169083151502179055509050506006600181819054906101000a900460ff168092919061090390611822565b91906101000a81548160ff021916908360ff16021790555050600460008360ff1660ff168152602001908152602001600020600301600081819054906101000a900460ff168092919061095590611822565b91906101000a81548160ff021916908360ff160217905550505050565b606080606060006060600360009054906101000a900460ff166109ca576040517f08c379a00000000000000000000000000000000000000000000000000000000081526004016109c190611638565b60405180910390fd5b600460008760ff1660ff168152602001908152602001600020600001600460008860ff1660ff168152602001908152602001600020600101600460008960ff1660ff168152602001908152602001600020600201600460008a60ff1660ff16815260200190815260200160002060030160009054906101000a900460ff16600460008b60ff1660ff168152602001908152602001600020600401848054610a70906117bf565b80601f0160208091040260200160405190810160405280929190818152602001828054610a9c906117bf565b8015610ae95780601f10610abe57610100808354040283529160200191610ae9565b820191906000526020600020905b815481529060010190602001808311610acc57829003601f168201915b50505050509450838054610afc906117bf565b80601f0160208091040260200160405190810160405280929190818152602001828054610b28906117bf565b8015610b755780601f10610b4a57610100808354040283529160200191610b75565b820191906000526020600020905b815481529060010190602001808311610b5857829003601f168201915b50505050509350828054610b88906117bf565b80601f0160208091040260200160405190810160405280929190818152602001828054610bb4906117bf565b8015610c015780601f10610bd657610100808354040283529160200191610c01565b820191906000526020600020905b815481529060010190602001808311610be457829003601f168201915b50505050509250808054610c14906117bf565b80601f0160208091040260200160405190810160405280929190818152602001828054610c40906117bf565b8015610c8d5780601f10610c6257610100808354040283529160200191610c8d565b820191906000526020600020905b815481529060010190602001808311610c7057829003601f168201915b505050505090509450945094509450945091939590929450565b606060008054906101000a900473ffffffffffffffffffffffffffffffffffffffff1673ffffffffffffffffffffffffffffffffffffffff163373ffffffffffffffffffffffffffffffffffffffff1614610d2e576040517fe60de15100000000000000000000000000000000000000000000000000000000815260040160405180910390fd5b6000805b600660009054906101000a900460ff1660ff168160ff161015610dc657600460008260ff1660ff16815260200190815260200160002060030160009054906101000a900460ff1660ff168260ff161015610db357600460008260ff1660ff16815260200190815260200160002060030160009054906101000a900460ff1691505b8080610dbe90611822565b915050610d32565b506000805b600660009054906101000a900460ff1660ff168160ff161015610e41578260ff16600460008360ff1660ff16815260200190815260200160002060030160009054906101000a900460ff1660ff161415610e2e578180610e2a90611822565b9250505b8080610e3990611822565b915050610dcb565b5060008160ff1667ffffffffffffffff811115610e6157610e606118d9565b5b604051908082528060200260200182016040528015610e8f5781602001602082028036833780820191505090505b5090506000805b600660009054906101000a900460ff1660ff168160ff161015610f37578460ff16600460008360ff1660ff16815260200190815260200160002060030160009054906101000a900460ff1660ff161415610f245780838360ff1681518110610f0157610f006118aa565b5b602002602001019060ff16908160ff16815250508180610f2090611822565b9250505b8080610f2f90611822565b915050610e96565b5060008360ff1667ffffffffffffffff811115610f5757610f566118d9565b5b604051908082528060200260200182016040528015610f855781602001602082028036833780820191505090505b50905060005b8460ff168160ff161015610ff457838160ff1681518110610faf57610fae6118aa565b5b6020026020010151828260ff1681518110610fcd57610fcc6118aa565b5b602002602001019060ff16908160ff16815250508080610fec90611822565b915050610f8b565b50809550505050505090565b6000600360009054906101000a900460ff16611051576040517f08c379a000000000000000000000000000000000000000000000000000000000815260040161104890611638565b60405180910390fd5b600660009054906101000a900460ff16905090565b606080600360009054906101000a900460ff166110b8576040517f08c379a00000000000000000000000000000000000000000000000000000000081526004016110af90611638565b60405180910390fd5b600160028180546110c8906117bf565b80601f01602080910402602001604051908101604052809291908181526020018280546110f4906117bf565b80156111415780601f1061111657610100808354040283529160200191611141565b820191906000526020600020905b81548152906001019060200180831161112457829003601f168201915b50505050509150808054611154906117bf565b80601f0160208091040260200160405190810160405280929190818152602001828054611180906117bf565b80156111cd5780601f106111a2576101008083540402835291602001916111cd565b820191906000526020600020905b8154815290600101906020018083116111b057829003601f168201915b50505050509050915091509091565b8280546111e8906117bf565b90600052602060002090601f01602090048101928261120a5760008555611251565b82601f1061122357805160ff1916838001178555611251565b82800160010185558215611251579182015b82811115611250578251825591602001919060010190611235565b5b50905061125e9190611262565b5090565b5b8082111561127b576000816000905550600101611263565b5090565b600061129261128d846116b8565b611693565b9050828152602081018484840111156112ae576112ad61190d565b5b6112b984828561177d565b509392505050565b6000813590506112d08161197f565b92915050565b600082601f8301126112eb576112ea611908565b5b81356112fb84826020860161127f565b91505092915050565b60008135905061131381611996565b92915050565b6000806000806080858703121561133357611332611917565b5b600085013567ffffffffffffffff81111561135157611350611912565b5b61135d878288016112d6565b945050602085013567ffffffffffffffff81111561137e5761137d611912565b5b61138a878288016112d6565b935050604085013567ffffffffffffffff8111156113ab576113aa611912565b5b6113b7878288016112d6565b925050606085013567ffffffffffffffff8111156113d8576113d7611912565b5b6113e4878288016112d6565b91505092959194509250565b60006020828403121561140657611405611917565b5b600061141484828501611304565b91505092915050565b6000806040838503121561143457611433611917565b5b600061144285828601611304565b9250506020611453858286016112c1565b9150509250929050565b60006114698383611552565b60208301905092915050565b6000611480826116f9565b61148a818561171c565b9350611495836116e9565b8060005b838110156114c65781516114ad888261145d565b97506114b88361170f565b925050600181019050611499565b5085935050505092915050565b60006114de82611704565b6114e8818561172d565b93506114f881856020860161178c565b6115018161191c565b840191505092915050565b6000611519601a8361172d565b91506115248261192d565b602082019050919050565b600061153c601c8361172d565b915061154782611956565b602082019050919050565b61155b81611770565b82525050565b61156a81611770565b82525050565b6000602082019050818103600083015261158a8184611475565b905092915050565b600060408201905081810360008301526115ac81856114d3565b905081810360208301526115c081846114d3565b90509392505050565b600060a08201905081810360008301526115e381886114d3565b905081810360208301526115f781876114d3565b9050818103604083015261160b81866114d3565b905061161a6060830185611561565b818103608083015261162c81846114d3565b90509695505050505050565b600060208201905081810360008301526116518161150c565b9050919050565b600060208201905081810360008301526116718161152f565b9050919050565b600060208201905061168d6000830184611561565b92915050565b600061169d6116ae565b90506116a982826117f1565b919050565b6000604051905090565b600067ffffffffffffffff8211156116d3576116d26118d9565b5b6116dc8261191c565b9050602081019050919050565b6000819050602082019050919050565b600081519050919050565b600081519050919050565b6000602082019050919050565b600082825260208201905092915050565b600082825260208201905092915050565b600061174982611750565b9050919050565b600073ffffffffffffffffffffffffffffffffffffffff82169050919050565b600060ff82169050919050565b82818337600083830152505050565b60005b838110156117aa57808201518184015260208101905061178f565b838111156117b9576000848401525b50505050565b600060028204905060018216806117d757607f821691505b602082108114156117eb576117ea61187b565b5b50919050565b6117fa8261191c565b810181811067ffffffffffffffff82111715611819576118186118d9565b5b80604052505050565b600061182d82611770565b915060ff8214156118415761184061184c565b5b600182019050919050565b7f4e487b7100000000000000000000000000000000000000000000000000000000600052601160045260246000fd5b7f4e487b7100000000000000000000000000000000000000000000000000000000600052602260045260246000fd5b7f4e487b7100000000000000000000000000000000000000000000000000000000600052603260045260246000fd5b7f4e487b7100000000000000000000000000000000000000000000000000000000600052604160045260246000fd5b600080fd5b600080fd5b600080fd5b600080fd5b6000601f19601f8301169050919050565b7f4572726f723a20456c656374696f6e2068617320656e6465642e000000000000600082015250565b7f4572726f723a596f752063616e6e6f7420646f75626c6520766f746500000000600082015250565b6119888161173e565b811461199357600080fd5b50565b61199f81611770565b81146119aa57600080fd5b5056fea26469706673582212204fc1fc1ef25279fd579b8a97ceea44e58cd668ca53f8d1cf177973432861975464736f6c63430008070033a26469706673582212207dd8df9e1a920bfa2c4d4d21f528766468a99a3d030965bda92a02aae125ddca64736f6c63430008070033",
  "linkReferences": {},
  "deployedLinkReferences": {}
}