{
  "_format": "hh-sol-artifact-1",
  "contractName": "Election",
  "sourceName": "contracts/Election.sol",
  "abi": [
    {
      "inputs": [
        {
          "internalType": "address",
          "name": "authority",
          "type": "address"
        },
        {
          "internalType": "string",
          "name": "name",
          "type": "string"
        },
        {
          "internalType": "string",
          "name": "description",
          "type": "string"
        }
      ],
      "stateMutability": "nonpayable",
      "type": "constructor"
    },
    {
      "inputs": [],
      "name": "Election_CandidateAlreadyExists",
      "type": "error"
    },
    {
      "inputs": [],
      "name": "Election_NottheElectionAuthority",
      "type": "error"
    },
    {
      "inputs": [
        {
          "internalType": "string",
          "name": "candidate_name",
          "type": "string"
        },
        {
          "internalType": "string",
          "name": "candidate_description",
          "type": "string"
        },
        {
          "internalType": "string",
          "name": "imgHash",
          "type": "string"
        },
        {
          "internalType": "string",
          "name": "voterId",
          "type": "string"
        }
      ],
      "name": "addCandidate",
      "outputs": [],
      "stateMutability": "nonpayable",
      "type": "function"
    },
    {
      "inputs": [
        {
          "internalType": "uint8",
          "name": "",
          "type": "uint8"
        }
      ],
      "name": "candidates",
      "outputs": [
        {
          "internalType": "string",
          "name": "candidate_name",
          "type": "string"
        },
        {
          "internalType": "string",
          "name": "candidate_description",
          "type": "string"
        },
        {
          "internalType": "string",
          "name": "imgHash",
          "type": "string"
        },
        {
          "internalType": "uint8",
          "name": "voteCount",
          "type": "uint8"
        },
        {
          "internalType": "string",
          "name": "voterId",
          "type": "string"
        }
      ],
      "stateMutability": "view",
      "type": "function"
    },
    {
      "inputs": [],
      "name": "endElection",
      "outputs": [],
      "stateMutability": "nonpayable",
      "type": "function"
    },
    {
      "inputs": [
        {
          "internalType": "uint8",
          "name": "candidateID",
          "type": "uint8"
        }
      ],
      "name": "getCandidate",
      "outputs": [
        {
          "internalType": "string",
          "name": "",
          "type": "string"
        },
        {
          "internalType": "string",
          "name": "",
          "type": "string"
        },
        {
          "internalType": "string",
          "name": "",
          "type": "string"
        },
        {
          "internalType": "uint8",
          "name": "",
          "type": "uint8"
        },
        {
          "internalType": "string",
          "name": "",
          "type": "string"
        }
      ],
      "stateMutability": "view",
      "type": "function"
    },
    {
      "inputs": [],
      "name": "getElectionDetails",
      "outputs": [
        {
          "internalType": "string",
          "name": "",
          "type": "string"
        },
        {
          "internalType": "string",
          "name": "",
          "type": "string"
        }
      ],
      "stateMutability": "view",
      "type": "function"
    },
    {
      "inputs": [],
      "name": "getNumOfCandidates",
      "outputs": [
        {
          "internalType": "uint8",
          "name": "",
          "type": "uint8"
        }
      ],
      "stateMutability": "view",
      "type": "function"
    },
    {
      "inputs": [],
      "name": "getNumOfVoters",
      "outputs": [
        {
          "internalType": "uint8",
          "name": "",
          "type": "uint8"
        }
      ],
      "stateMutability": "view",
      "type": "function"
    },
    {
      "inputs": [],
      "name": "getWinners",
      "outputs": [
        {
          "internalType": "uint8[]",
          "name": "",
          "type": "uint8[]"
        }
      ],
      "stateMutability": "view",
      "type": "function"
    },
    {
      "inputs": [
        {
          "internalType": "uint8",
          "name": "candidateID",
          "type": "uint8"
        },
        {
          "internalType": "address",
          "name": "voterAddress",
          "type": "address"
        }
      ],
      "name": "vote",
      "outputs": [],
      "stateMutability": "nonpayable",
      "type": "function"
    }
  ],
  "bytecode": "0x60806040523480156200001157600080fd5b5060405162001f0838038062001f08833981810160405281019062000037919062000212565b826000806101000a81548173ffffffffffffffffffffffffffffffffffffffff021916908373ffffffffffffffffffffffffffffffffffffffff16021790555081600190805190602001906200008f929190620000cd565b508060029080519060200190620000a8929190620000cd565b506001600360006101000a81548160ff0219169083151502179055505050506200047e565b828054620000db9062000375565b90600052602060002090601f016020900481019282620000ff57600085556200014b565b82601f106200011a57805160ff19168380011785556200014b565b828001600101855582156200014b579182015b828111156200014a5782518255916020019190600101906200012d565b5b5090506200015a91906200015e565b5090565b5b80821115620001795760008160009055506001016200015f565b5090565b6000620001946200018e84620002d5565b620002ac565b905082815260208101848484011115620001b357620001b262000444565b5b620001c08482856200033f565b509392505050565b600081519050620001d98162000464565b92915050565b600082601f830112620001f757620001f66200043f565b5b8151620002098482602086016200017d565b91505092915050565b6000806000606084860312156200022e576200022d6200044e565b5b60006200023e86828701620001c8565b935050602084015167ffffffffffffffff81111562000262576200026162000449565b5b6200027086828701620001df565b925050604084015167ffffffffffffffff81111562000294576200029362000449565b5b620002a286828701620001df565b9150509250925092565b6000620002b8620002cb565b9050620002c68282620003ab565b919050565b6000604051905090565b600067ffffffffffffffff821115620002f357620002f262000410565b5b620002fe8262000453565b9050602081019050919050565b600062000318826200031f565b9050919050565b600073ffffffffffffffffffffffffffffffffffffffff82169050919050565b60005b838110156200035f57808201518184015260208101905062000342565b838111156200036f576000848401525b50505050565b600060028204905060018216806200038e57607f821691505b60208210811415620003a557620003a4620003e1565b5b50919050565b620003b68262000453565b810181811067ffffffffffffffff82111715620003d857620003d762000410565b5b80604052505050565b7f4e487b7100000000000000000000000000000000000000000000000000000000600052602260045260246000fd5b7f4e487b7100000000000000000000000000000000000000000000000000000000600052604160045260246000fd5b600080fd5b600080fd5b600080fd5b600080fd5b6000601f19601f8301169050919050565b6200046f816200030b565b81146200047b57600080fd5b50565b611a7a806200048e6000396000f3fe608060405234801561001057600080fd5b50600436106100935760003560e01c8063b81c645311610066578063b81c645314610110578063cde9370f1461012c578063df15c37e14610160578063e8685ba11461017e578063ed836bc31461019c57610093565b806342b03cc91461009857806359f78468146100b457806365fc783c146100be5780636d6277f4146100dc575b600080fd5b6100b260048036038101906100ad91906112b2565b6101bb565b005b6100bc610482565b005b6100c6610573565b6040516100d391906116ef565b60405180910390f35b6100f660048036038101906100f19190611389565b61058a565b604051610107959493929190611640565b60405180910390f35b61012a600480360381019061012591906113b6565b6107ed565b005b61014660048036038101906101419190611389565b6109f8565b604051610157959493929190611640565b60405180910390f35b610168610cde565b60405161017591906115e7565b60405180910390f35b610186611037565b60405161019391906116ef565b60405180910390f35b6101a461104e565b6040516101b2929190611609565b60405180910390f35b60008054906101000a900473ffffffffffffffffffffffffffffffffffffffff1673ffffffffffffffffffffffffffffffffffffffff163373ffffffffffffffffffffffffffffffffffffffff1614610240576040517fe60de15100000000000000000000000000000000000000000000000000000000815260040160405180910390fd5b600360009054906101000a900460ff1661028f576040517f08c379a0000000000000000000000000000000000000000000000000000000008152600401610286906116af565b60405180910390fd5b60005b600660009054906101000a900460ff1660ff168160ff16101561036357816040516020016102c091906115b9565b60405160208183030381529060405280519060200120600460008360ff1660ff16815260200190815260200160002060040160405160200161030291906115d0565b604051602081830303815290604052805190602001201415610350576040517f2bc4df1300000000000000000000000000000000000000000000000000000000815260040160405180910390fd5b808061035b906118b9565b915050610292565b5060006006600081819054906101000a900460ff1680929190610385906118b9565b91906101000a81548160ff021916908360ff16021790555090506040518060a00160405280868152602001858152602001848152602001600060ff16815260200183815250600460008360ff1660ff16815260200190815260200160002060008201518160000190805190602001906103ff929190611175565b50602082015181600101908051906020019061041c929190611175565b506040820151816002019080519060200190610439929190611175565b5060608201518160030160006101000a81548160ff021916908360ff1602179055506080820151816004019080519060200190610477929190611175565b509050505050505050565b60008054906101000a900473ffffffffffffffffffffffffffffffffffffffff1673ffffffffffffffffffffffffffffffffffffffff163373ffffffffffffffffffffffffffffffffffffffff1614610507576040517fe60de15100000000000000000000000000000000000000000000000000000000815260040160405180910390fd5b600360009054906101000a900460ff16610556576040517f08c379a000000000000000000000000000000000000000000000000000000000815260040161054d906116af565b60405180910390fd5b6000600360006101000a81548160ff021916908315150217905550565b6000600660019054906101000a900460ff16905090565b60046020528060005260406000206000915090508060000180546105ad90611856565b80601f01602080910402602001604051908101604052809291908181526020018280546105d990611856565b80156106265780601f106105fb57610100808354040283529160200191610626565b820191906000526020600020905b81548152906001019060200180831161060957829003601f168201915b50505050509080600101805461063b90611856565b80601f016020809104026020016040519081016040528092919081815260200182805461066790611856565b80156106b45780601f10610689576101008083540402835291602001916106b4565b820191906000526020600020905b81548152906001019060200180831161069757829003601f168201915b5050505050908060020180546106c990611856565b80601f01602080910402602001604051908101604052809291908181526020018280546106f590611856565b80156107425780601f1061071757610100808354040283529160200191610742565b820191906000526020600020905b81548152906001019060200180831161072557829003601f168201915b5050505050908060030160009054906101000a900460ff169080600401805461076a90611856565b80601f016020809104026020016040519081016040528092919081815260200182805461079690611856565b80156107e35780601f106107b8576101008083540402835291602001916107e3565b820191906000526020600020905b8154815290600101906020018083116107c657829003601f168201915b5050505050905085565b600360009054906101000a900460ff1661083c576040517f08c379a0000000000000000000000000000000000000000000000000000000008152600401610833906116af565b60405180910390fd5b600560008273ffffffffffffffffffffffffffffffffffffffff1673ffffffffffffffffffffffffffffffffffffffff16815260200190815260200160002060000160019054906101000a900460ff16156108cc576040517f08c379a00000000000000000000000000000000000000000000000000000000081526004016108c3906116cf565b60405180910390fd5b60405180604001604052808360ff16815260200160011515815250600560008373ffffffffffffffffffffffffffffffffffffffff1673ffffffffffffffffffffffffffffffffffffffff16815260200190815260200160002060008201518160000160006101000a81548160ff021916908360ff16021790555060208201518160000160016101000a81548160ff0219169083151502179055509050506006600181819054906101000a900460ff1680929190610989906118b9565b91906101000a81548160ff021916908360ff16021790555050600460008360ff1660ff168152602001908152602001600020600301600081819054906101000a900460ff16809291906109db906118b9565b91906101000a81548160ff021916908360ff160217905550505050565b606080606060006060600460008760ff1660ff168152602001908152602001600020600001600460008860ff1660ff168152602001908152602001600020600101600460008960ff1660ff168152602001908152602001600020600201600460008a60ff1660ff16815260200190815260200160002060030160009054906101000a900460ff16600460008b60ff1660ff168152602001908152602001600020600401848054610aa790611856565b80601f0160208091040260200160405190810160405280929190818152602001828054610ad390611856565b8015610b205780601f10610af557610100808354040283529160200191610b20565b820191906000526020600020905b815481529060010190602001808311610b0357829003601f168201915b50505050509450838054610b3390611856565b80601f0160208091040260200160405190810160405280929190818152602001828054610b5f90611856565b8015610bac5780601f10610b8157610100808354040283529160200191610bac565b820191906000526020600020905b815481529060010190602001808311610b8f57829003601f168201915b50505050509350828054610bbf90611856565b80601f0160208091040260200160405190810160405280929190818152602001828054610beb90611856565b8015610c385780601f10610c0d57610100808354040283529160200191610c38565b820191906000526020600020905b815481529060010190602001808311610c1b57829003601f168201915b50505050509250808054610c4b90611856565b80601f0160208091040260200160405190810160405280929190818152602001828054610c7790611856565b8015610cc45780601f10610c9957610100808354040283529160200191610cc4565b820191906000526020600020905b815481529060010190602001808311610ca757829003601f168201915b505050505090509450945094509450945091939590929450565b606060008054906101000a900473ffffffffffffffffffffffffffffffffffffffff1673ffffffffffffffffffffffffffffffffffffffff163373ffffffffffffffffffffffffffffffffffffffff1614610d65576040517fe60de15100000000000000000000000000000000000000000000000000000000815260040160405180910390fd5b6000805b600660009054906101000a900460ff1660ff168160ff161015610dfd57600460008260ff1660ff16815260200190815260200160002060030160009054906101000a900460ff1660ff168260ff161015610dea57600460008260ff1660ff16815260200190815260200160002060030160009054906101000a900460ff1691505b8080610df5906118b9565b915050610d69565b506000805b600660009054906101000a900460ff1660ff168160ff161015610e78578260ff16600460008360ff1660ff16815260200190815260200160002060030160009054906101000a900460ff1660ff161415610e65578180610e61906118b9565b9250505b8080610e70906118b9565b915050610e02565b5060008160ff1667ffffffffffffffff811115610e9857610e97611970565b5b604051908082528060200260200182016040528015610ec65781602001602082028036833780820191505090505b5090506000805b600660009054906101000a900460ff1660ff168160ff161015610f6e578460ff16600460008360ff1660ff16815260200190815260200160002060030160009054906101000a900460ff1660ff161415610f5b5780838360ff1681518110610f3857610f37611941565b5b602002602001019060ff16908160ff16815250508180610f57906118b9565b9250505b8080610f66906118b9565b915050610ecd565b5060008360ff1667ffffffffffffffff811115610f8e57610f8d611970565b5b604051908082528060200260200182016040528015610fbc5781602001602082028036833780820191505090505b50905060005b8460ff168160ff16101561102b57838160ff1681518110610fe657610fe5611941565b5b6020026020010151828260ff168151811061100457611003611941565b5b602002602001019060ff16908160ff16815250508080611023906118b9565b915050610fc2565b50809550505050505090565b6000600660009054906101000a900460ff16905090565b6060806001600281805461106190611856565b80601f016020809104026020016040519081016040528092919081815260200182805461108d90611856565b80156110da5780601f106110af576101008083540402835291602001916110da565b820191906000526020600020905b8154815290600101906020018083116110bd57829003601f168201915b505050505091508080546110ed90611856565b80601f016020809104026020016040519081016040528092919081815260200182805461111990611856565b80156111665780601f1061113b57610100808354040283529160200191611166565b820191906000526020600020905b81548152906001019060200180831161114957829003601f168201915b50505050509050915091509091565b82805461118190611856565b90600052602060002090601f0160209004810192826111a357600085556111ea565b82601f106111bc57805160ff19168380011785556111ea565b828001600101855582156111ea579182015b828111156111e95782518255916020019190600101906111ce565b5b5090506111f791906111fb565b5090565b5b808211156112145760008160009055506001016111fc565b5090565b600061122b6112268461172f565b61170a565b905082815260208101848484011115611247576112466119a4565b5b611252848285611814565b509392505050565b60008135905061126981611a16565b92915050565b600082601f8301126112845761128361199f565b5b8135611294848260208601611218565b91505092915050565b6000813590506112ac81611a2d565b92915050565b600080600080608085870312156112cc576112cb6119ae565b5b600085013567ffffffffffffffff8111156112ea576112e96119a9565b5b6112f68782880161126f565b945050602085013567ffffffffffffffff811115611317576113166119a9565b5b6113238782880161126f565b935050604085013567ffffffffffffffff811115611344576113436119a9565b5b6113508782880161126f565b925050606085013567ffffffffffffffff811115611371576113706119a9565b5b61137d8782880161126f565b91505092959194509250565b60006020828403121561139f5761139e6119ae565b5b60006113ad8482850161129d565b91505092915050565b600080604083850312156113cd576113cc6119ae565b5b60006113db8582860161129d565b92505060206113ec8582860161125a565b9150509250929050565b6000611402838361159b565b60208301905092915050565b600061141982611785565b61142381856117a8565b935061142e83611760565b8060005b8381101561145f57815161144688826113f6565b97506114518361179b565b925050600181019050611432565b5085935050505092915050565b600061147782611790565b61148181856117b9565b9350611491818560208601611823565b61149a816119b3565b840191505092915050565b60006114b082611790565b6114ba81856117ca565b93506114ca818560208601611823565b80840191505092915050565b600081546114e381611856565b6114ed81866117ca565b9450600182166000811461150857600181146115195761154c565b60ff1983168652818601935061154c565b61152285611770565b60005b8381101561154457815481890152600182019150602081019050611525565b838801955050505b50505092915050565b6000611562601a836117b9565b915061156d826119c4565b602082019050919050565b6000611585601c836117b9565b9150611590826119ed565b602082019050919050565b6115a481611807565b82525050565b6115b381611807565b82525050565b60006115c582846114a5565b915081905092915050565b60006115dc82846114d6565b915081905092915050565b60006020820190508181036000830152611601818461140e565b905092915050565b60006040820190508181036000830152611623818561146c565b90508181036020830152611637818461146c565b90509392505050565b600060a082019050818103600083015261165a818861146c565b9050818103602083015261166e818761146c565b90508181036040830152611682818661146c565b905061169160608301856115aa565b81810360808301526116a3818461146c565b90509695505050505050565b600060208201905081810360008301526116c881611555565b9050919050565b600060208201905081810360008301526116e881611578565b9050919050565b600060208201905061170460008301846115aa565b92915050565b6000611714611725565b90506117208282611888565b919050565b6000604051905090565b600067ffffffffffffffff82111561174a57611749611970565b5b611753826119b3565b9050602081019050919050565b6000819050602082019050919050565b60008190508160005260206000209050919050565b600081519050919050565b600081519050919050565b6000602082019050919050565b600082825260208201905092915050565b600082825260208201905092915050565b600081905092915050565b60006117e0826117e7565b9050919050565b600073ffffffffffffffffffffffffffffffffffffffff82169050919050565b600060ff82169050919050565b82818337600083830152505050565b60005b83811015611841578082015181840152602081019050611826565b83811115611850576000848401525b50505050565b6000600282049050600182168061186e57607f821691505b6020821081141561188257611881611912565b5b50919050565b611891826119b3565b810181811067ffffffffffffffff821117156118b0576118af611970565b5b80604052505050565b60006118c482611807565b915060ff8214156118d8576118d76118e3565b5b600182019050919050565b7f4e487b7100000000000000000000000000000000000000000000000000000000600052601160045260246000fd5b7f4e487b7100000000000000000000000000000000000000000000000000000000600052602260045260246000fd5b7f4e487b7100000000000000000000000000000000000000000000000000000000600052603260045260246000fd5b7f4e487b7100000000000000000000000000000000000000000000000000000000600052604160045260246000fd5b600080fd5b600080fd5b600080fd5b600080fd5b6000601f19601f8301169050919050565b7f4572726f723a20456c656374696f6e2068617320656e6465642e000000000000600082015250565b7f4572726f723a596f752063616e6e6f7420646f75626c6520766f746500000000600082015250565b611a1f816117d5565b8114611a2a57600080fd5b50565b611a3681611807565b8114611a4157600080fd5b5056fea2646970667358221220648e97adab4ea8bd6282d495e2d3941110c78bed39f1b21ce88907b87cab8b8764736f6c63430008070033",
  "linkReferences": {},
  "deployedLinkReferences": {}
}