{
  "_format": "hh-sol-artifact-1",
  "contractName": "Election",
  "sourceName": "contracts/Election.sol",
  "abi": [
    {
      "inputs": [
        {
          "internalType": "address",
          "name": "authority",
          "type": "address"
        },
        {
          "internalType": "string",
          "name": "name",
          "type": "string"
        },
        {
          "internalType": "string",
          "name": "description",
          "type": "string"
        }
      ],
      "stateMutability": "nonpayable",
      "type": "constructor"
    },
    {
      "inputs": [],
      "name": "Election_NottheElectionAuthority",
      "type": "error"
    },
    {
      "inputs": [
        {
          "internalType": "string",
          "name": "candidate_name",
          "type": "string"
        },
        {
          "internalType": "string",
          "name": "candidate_description",
          "type": "string"
        },
        {
          "internalType": "string",
          "name": "imgHash",
          "type": "string"
        },
        {
          "internalType": "string",
          "name": "voterId",
          "type": "string"
        }
      ],
      "name": "addCandidate",
      "outputs": [],
      "stateMutability": "nonpayable",
      "type": "function"
    },
    {
      "inputs": [
        {
          "internalType": "uint8",
          "name": "",
          "type": "uint8"
        }
      ],
      "name": "candidates",
      "outputs": [
        {
          "internalType": "string",
          "name": "candidate_name",
          "type": "string"
        },
        {
          "internalType": "string",
          "name": "candidate_description",
          "type": "string"
        },
        {
          "internalType": "string",
          "name": "imgHash",
          "type": "string"
        },
        {
          "internalType": "uint8",
          "name": "voteCount",
          "type": "uint8"
        },
        {
          "internalType": "string",
          "name": "voterId",
          "type": "string"
        }
      ],
      "stateMutability": "view",
      "type": "function"
    },
    {
      "inputs": [],
      "name": "endElection",
      "outputs": [],
      "stateMutability": "nonpayable",
      "type": "function"
    },
    {
      "inputs": [
        {
          "internalType": "uint8",
          "name": "candidateID",
          "type": "uint8"
        }
      ],
      "name": "getCandidate",
      "outputs": [
        {
          "internalType": "string",
          "name": "",
          "type": "string"
        },
        {
          "internalType": "string",
          "name": "",
          "type": "string"
        },
        {
          "internalType": "string",
          "name": "",
          "type": "string"
        },
        {
          "internalType": "uint8",
          "name": "",
          "type": "uint8"
        },
        {
          "internalType": "string",
          "name": "",
          "type": "string"
        }
      ],
      "stateMutability": "view",
      "type": "function"
    },
    {
      "inputs": [],
      "name": "getElectionDetails",
      "outputs": [
        {
          "internalType": "string",
          "name": "",
          "type": "string"
        },
        {
          "internalType": "string",
          "name": "",
          "type": "string"
        }
      ],
      "stateMutability": "view",
      "type": "function"
    },
    {
      "inputs": [],
      "name": "getNumOfCandidates",
      "outputs": [
        {
          "internalType": "uint8",
          "name": "",
          "type": "uint8"
        }
      ],
      "stateMutability": "view",
      "type": "function"
    },
    {
      "inputs": [],
      "name": "getNumOfVoters",
      "outputs": [
        {
          "internalType": "uint8",
          "name": "",
          "type": "uint8"
        }
      ],
      "stateMutability": "view",
      "type": "function"
    },
    {
      "inputs": [],
      "name": "getWinners",
      "outputs": [
        {
          "internalType": "uint8[]",
          "name": "",
          "type": "uint8[]"
        }
      ],
      "stateMutability": "view",
      "type": "function"
    },
    {
      "inputs": [
        {
          "internalType": "uint8",
          "name": "candidateID",
          "type": "uint8"
        },
        {
          "internalType": "address",
          "name": "voterAddress",
          "type": "address"
        }
      ],
      "name": "vote",
      "outputs": [],
      "stateMutability": "nonpayable",
      "type": "function"
    }
  ],
  "bytecode": "0x60806040523480156200001157600080fd5b5060405162001d3538038062001d35833981810160405281019062000037919062000212565b826000806101000a81548173ffffffffffffffffffffffffffffffffffffffff021916908373ffffffffffffffffffffffffffffffffffffffff16021790555081600190805190602001906200008f929190620000cd565b508060029080519060200190620000a8929190620000cd565b506001600360006101000a81548160ff0219169083151502179055505050506200047e565b828054620000db9062000375565b90600052602060002090601f016020900481019282620000ff57600085556200014b565b82601f106200011a57805160ff19168380011785556200014b565b828001600101855582156200014b579182015b828111156200014a5782518255916020019190600101906200012d565b5b5090506200015a91906200015e565b5090565b5b80821115620001795760008160009055506001016200015f565b5090565b6000620001946200018e84620002d5565b620002ac565b905082815260208101848484011115620001b357620001b262000444565b5b620001c08482856200033f565b509392505050565b600081519050620001d98162000464565b92915050565b600082601f830112620001f757620001f66200043f565b5b8151620002098482602086016200017d565b91505092915050565b6000806000606084860312156200022e576200022d6200044e565b5b60006200023e86828701620001c8565b935050602084015167ffffffffffffffff81111562000262576200026162000449565b5b6200027086828701620001df565b925050604084015167ffffffffffffffff81111562000294576200029362000449565b5b620002a286828701620001df565b9150509250925092565b6000620002b8620002cb565b9050620002c68282620003ab565b919050565b6000604051905090565b600067ffffffffffffffff821115620002f357620002f262000410565b5b620002fe8262000453565b9050602081019050919050565b600062000318826200031f565b9050919050565b600073ffffffffffffffffffffffffffffffffffffffff82169050919050565b60005b838110156200035f57808201518184015260208101905062000342565b838111156200036f576000848401525b50505050565b600060028204905060018216806200038e57607f821691505b60208210811415620003a557620003a4620003e1565b5b50919050565b620003b68262000453565b810181811067ffffffffffffffff82111715620003d857620003d762000410565b5b80604052505050565b7f4e487b7100000000000000000000000000000000000000000000000000000000600052602260045260246000fd5b7f4e487b7100000000000000000000000000000000000000000000000000000000600052604160045260246000fd5b600080fd5b600080fd5b600080fd5b600080fd5b6000601f19601f8301169050919050565b6200046f816200030b565b81146200047b57600080fd5b50565b6118a7806200048e6000396000f3fe608060405234801561001057600080fd5b50600436106100935760003560e01c8063b81c645311610066578063b81c645314610110578063cde9370f1461012c578063df15c37e14610160578063e8685ba11461017e578063ed836bc31461019c57610093565b806342b03cc91461009857806359f78468146100b457806365fc783c146100be5780636d6277f4146100dc575b600080fd5b6100b260048036038101906100ad91906111dd565b6101bb565b005b6100bc6103ad565b005b6100c661049e565b6040516100d3919061153c565b60405180910390f35b6100f660048036038101906100f191906112b4565b6104b5565b60405161010795949392919061148d565b60405180910390f35b61012a600480360381019061012591906112e1565b610718565b005b610146600480360381019061014191906112b4565b610923565b60405161015795949392919061148d565b60405180910390f35b610168610c09565b6040516101759190611434565b60405180910390f35b610186610f62565b604051610193919061153c565b60405180910390f35b6101a4610f79565b6040516101b2929190611456565b60405180910390f35b60008054906101000a900473ffffffffffffffffffffffffffffffffffffffff1673ffffffffffffffffffffffffffffffffffffffff163373ffffffffffffffffffffffffffffffffffffffff1614610240576040517fe60de15100000000000000000000000000000000000000000000000000000000815260040160405180910390fd5b600360009054906101000a900460ff1661028f576040517f08c379a0000000000000000000000000000000000000000000000000000000008152600401610286906114fc565b60405180910390fd5b60006006600081819054906101000a900460ff16809291906102b0906116e6565b91906101000a81548160ff021916908360ff16021790555090506040518060a00160405280868152602001858152602001848152602001600060ff16815260200183815250600460008360ff1660ff168152602001908152602001600020600082015181600001908051906020019061032a9291906110a0565b5060208201518160010190805190602001906103479291906110a0565b5060408201518160020190805190602001906103649291906110a0565b5060608201518160030160006101000a81548160ff021916908360ff16021790555060808201518160040190805190602001906103a29291906110a0565b509050505050505050565b60008054906101000a900473ffffffffffffffffffffffffffffffffffffffff1673ffffffffffffffffffffffffffffffffffffffff163373ffffffffffffffffffffffffffffffffffffffff1614610432576040517fe60de15100000000000000000000000000000000000000000000000000000000815260040160405180910390fd5b600360009054906101000a900460ff16610481576040517f08c379a0000000000000000000000000000000000000000000000000000000008152600401610478906114fc565b60405180910390fd5b6000600360006101000a81548160ff021916908315150217905550565b6000600660019054906101000a900460ff16905090565b60046020528060005260406000206000915090508060000180546104d890611683565b80601f016020809104026020016040519081016040528092919081815260200182805461050490611683565b80156105515780601f1061052657610100808354040283529160200191610551565b820191906000526020600020905b81548152906001019060200180831161053457829003601f168201915b50505050509080600101805461056690611683565b80601f016020809104026020016040519081016040528092919081815260200182805461059290611683565b80156105df5780601f106105b4576101008083540402835291602001916105df565b820191906000526020600020905b8154815290600101906020018083116105c257829003601f168201915b5050505050908060020180546105f490611683565b80601f016020809104026020016040519081016040528092919081815260200182805461062090611683565b801561066d5780601f106106425761010080835404028352916020019161066d565b820191906000526020600020905b81548152906001019060200180831161065057829003601f168201915b5050505050908060030160009054906101000a900460ff169080600401805461069590611683565b80601f01602080910402602001604051908101604052809291908181526020018280546106c190611683565b801561070e5780601f106106e35761010080835404028352916020019161070e565b820191906000526020600020905b8154815290600101906020018083116106f157829003601f168201915b5050505050905085565b600360009054906101000a900460ff16610767576040517f08c379a000000000000000000000000000000000000000000000000000000000815260040161075e906114fc565b60405180910390fd5b600560008273ffffffffffffffffffffffffffffffffffffffff1673ffffffffffffffffffffffffffffffffffffffff16815260200190815260200160002060000160019054906101000a900460ff16156107f7576040517f08c379a00000000000000000000000000000000000000000000000000000000081526004016107ee9061151c565b60405180910390fd5b60405180604001604052808360ff16815260200160011515815250600560008373ffffffffffffffffffffffffffffffffffffffff1673ffffffffffffffffffffffffffffffffffffffff16815260200190815260200160002060008201518160000160006101000a81548160ff021916908360ff16021790555060208201518160000160016101000a81548160ff0219169083151502179055509050506006600181819054906101000a900460ff16809291906108b4906116e6565b91906101000a81548160ff021916908360ff16021790555050600460008360ff1660ff168152602001908152602001600020600301600081819054906101000a900460ff1680929190610906906116e6565b91906101000a81548160ff021916908360ff160217905550505050565b606080606060006060600460008760ff1660ff168152602001908152602001600020600001600460008860ff1660ff168152602001908152602001600020600101600460008960ff1660ff168152602001908152602001600020600201600460008a60ff1660ff16815260200190815260200160002060030160009054906101000a900460ff16600460008b60ff1660ff1681526020019081526020016000206004018480546109d290611683565b80601f01602080910402602001604051908101604052809291908181526020018280546109fe90611683565b8015610a4b5780601f10610a2057610100808354040283529160200191610a4b565b820191906000526020600020905b815481529060010190602001808311610a2e57829003601f168201915b50505050509450838054610a5e90611683565b80601f0160208091040260200160405190810160405280929190818152602001828054610a8a90611683565b8015610ad75780601f10610aac57610100808354040283529160200191610ad7565b820191906000526020600020905b815481529060010190602001808311610aba57829003601f168201915b50505050509350828054610aea90611683565b80601f0160208091040260200160405190810160405280929190818152602001828054610b1690611683565b8015610b635780601f10610b3857610100808354040283529160200191610b63565b820191906000526020600020905b815481529060010190602001808311610b4657829003601f168201915b50505050509250808054610b7690611683565b80601f0160208091040260200160405190810160405280929190818152602001828054610ba290611683565b8015610bef5780601f10610bc457610100808354040283529160200191610bef565b820191906000526020600020905b815481529060010190602001808311610bd257829003601f168201915b505050505090509450945094509450945091939590929450565b606060008054906101000a900473ffffffffffffffffffffffffffffffffffffffff1673ffffffffffffffffffffffffffffffffffffffff163373ffffffffffffffffffffffffffffffffffffffff1614610c90576040517fe60de15100000000000000000000000000000000000000000000000000000000815260040160405180910390fd5b6000805b600660009054906101000a900460ff1660ff168160ff161015610d2857600460008260ff1660ff16815260200190815260200160002060030160009054906101000a900460ff1660ff168260ff161015610d1557600460008260ff1660ff16815260200190815260200160002060030160009054906101000a900460ff1691505b8080610d20906116e6565b915050610c94565b506000805b600660009054906101000a900460ff1660ff168160ff161015610da3578260ff16600460008360ff1660ff16815260200190815260200160002060030160009054906101000a900460ff1660ff161415610d90578180610d8c906116e6565b9250505b8080610d9b906116e6565b915050610d2d565b5060008160ff1667ffffffffffffffff811115610dc357610dc261179d565b5b604051908082528060200260200182016040528015610df15781602001602082028036833780820191505090505b5090506000805b600660009054906101000a900460ff1660ff168160ff161015610e99578460ff16600460008360ff1660ff16815260200190815260200160002060030160009054906101000a900460ff1660ff161415610e865780838360ff1681518110610e6357610e6261176e565b5b602002602001019060ff16908160ff16815250508180610e82906116e6565b9250505b8080610e91906116e6565b915050610df8565b5060008360ff1667ffffffffffffffff811115610eb957610eb861179d565b5b604051908082528060200260200182016040528015610ee75781602001602082028036833780820191505090505b50905060005b8460ff168160ff161015610f5657838160ff1681518110610f1157610f1061176e565b5b6020026020010151828260ff1681518110610f2f57610f2e61176e565b5b602002602001019060ff16908160ff16815250508080610f4e906116e6565b915050610eed565b50809550505050505090565b6000600660009054906101000a900460ff16905090565b60608060016002818054610f8c90611683565b80601f0160208091040260200160405190810160405280929190818152602001828054610fb890611683565b80156110055780601f10610fda57610100808354040283529160200191611005565b820191906000526020600020905b815481529060010190602001808311610fe857829003601f168201915b5050505050915080805461101890611683565b80601f016020809104026020016040519081016040528092919081815260200182805461104490611683565b80156110915780601f1061106657610100808354040283529160200191611091565b820191906000526020600020905b81548152906001019060200180831161107457829003601f168201915b50505050509050915091509091565b8280546110ac90611683565b90600052602060002090601f0160209004810192826110ce5760008555611115565b82601f106110e757805160ff1916838001178555611115565b82800160010185558215611115579182015b828111156111145782518255916020019190600101906110f9565b5b5090506111229190611126565b5090565b5b8082111561113f576000816000905550600101611127565b5090565b60006111566111518461157c565b611557565b905082815260208101848484011115611172576111716117d1565b5b61117d848285611641565b509392505050565b60008135905061119481611843565b92915050565b600082601f8301126111af576111ae6117cc565b5b81356111bf848260208601611143565b91505092915050565b6000813590506111d78161185a565b92915050565b600080600080608085870312156111f7576111f66117db565b5b600085013567ffffffffffffffff811115611215576112146117d6565b5b6112218782880161119a565b945050602085013567ffffffffffffffff811115611242576112416117d6565b5b61124e8782880161119a565b935050604085013567ffffffffffffffff81111561126f5761126e6117d6565b5b61127b8782880161119a565b925050606085013567ffffffffffffffff81111561129c5761129b6117d6565b5b6112a88782880161119a565b91505092959194509250565b6000602082840312156112ca576112c96117db565b5b60006112d8848285016111c8565b91505092915050565b600080604083850312156112f8576112f76117db565b5b6000611306858286016111c8565b925050602061131785828601611185565b9150509250929050565b600061132d8383611416565b60208301905092915050565b6000611344826115bd565b61134e81856115e0565b9350611359836115ad565b8060005b8381101561138a5781516113718882611321565b975061137c836115d3565b92505060018101905061135d565b5085935050505092915050565b60006113a2826115c8565b6113ac81856115f1565b93506113bc818560208601611650565b6113c5816117e0565b840191505092915050565b60006113dd601a836115f1565b91506113e8826117f1565b602082019050919050565b6000611400601c836115f1565b915061140b8261181a565b602082019050919050565b61141f81611634565b82525050565b61142e81611634565b82525050565b6000602082019050818103600083015261144e8184611339565b905092915050565b600060408201905081810360008301526114708185611397565b905081810360208301526114848184611397565b90509392505050565b600060a08201905081810360008301526114a78188611397565b905081810360208301526114bb8187611397565b905081810360408301526114cf8186611397565b90506114de6060830185611425565b81810360808301526114f08184611397565b90509695505050505050565b60006020820190508181036000830152611515816113d0565b9050919050565b60006020820190508181036000830152611535816113f3565b9050919050565b60006020820190506115516000830184611425565b92915050565b6000611561611572565b905061156d82826116b5565b919050565b6000604051905090565b600067ffffffffffffffff8211156115975761159661179d565b5b6115a0826117e0565b9050602081019050919050565b6000819050602082019050919050565b600081519050919050565b600081519050919050565b6000602082019050919050565b600082825260208201905092915050565b600082825260208201905092915050565b600061160d82611614565b9050919050565b600073ffffffffffffffffffffffffffffffffffffffff82169050919050565b600060ff82169050919050565b82818337600083830152505050565b60005b8381101561166e578082015181840152602081019050611653565b8381111561167d576000848401525b50505050565b6000600282049050600182168061169b57607f821691505b602082108114156116af576116ae61173f565b5b50919050565b6116be826117e0565b810181811067ffffffffffffffff821117156116dd576116dc61179d565b5b80604052505050565b60006116f182611634565b915060ff82141561170557611704611710565b5b600182019050919050565b7f4e487b7100000000000000000000000000000000000000000000000000000000600052601160045260246000fd5b7f4e487b7100000000000000000000000000000000000000000000000000000000600052602260045260246000fd5b7f4e487b7100000000000000000000000000000000000000000000000000000000600052603260045260246000fd5b7f4e487b7100000000000000000000000000000000000000000000000000000000600052604160045260246000fd5b600080fd5b600080fd5b600080fd5b600080fd5b6000601f19601f8301169050919050565b7f4572726f723a20456c656374696f6e2068617320656e6465642e000000000000600082015250565b7f4572726f723a596f752063616e6e6f7420646f75626c6520766f746500000000600082015250565b61184c81611602565b811461185757600080fd5b50565b61186381611634565b811461186e57600080fd5b5056fea2646970667358221220fc6a3fb2fe2bd3cedb121af3a53ef32820c551a18dcb2241a5a5a1309c69f3bc64736f6c63430008070033",
  "linkReferences": {},
  "deployedLinkReferences": {}
}