{
  "_format": "hh-sol-artifact-1",
  "contractName": "ElectionFact",
  "sourceName": "contracts/Election.sol",
  "abi": [
    {
      "inputs": [
        {
          "internalType": "address",
          "name": "metamask",
          "type": "address"
        },
        {
          "internalType": "string",
          "name": "election_name",
          "type": "string"
        },
        {
          "internalType": "string",
          "name": "election_description",
          "type": "string"
        }
      ],
      "name": "createElection",
      "outputs": [],
      "stateMutability": "nonpayable",
      "type": "function"
    },
    {
      "inputs": [
        {
          "internalType": "address",
          "name": "metamask",
          "type": "address"
        }
      ],
      "name": "getDeployedElection",
      "outputs": [
        {
          "internalType": "address",
          "name": "",
          "type": "address"
        },
        {
          "internalType": "string",
          "name": "",
          "type": "string"
        },
        {
          "internalType": "string",
          "name": "",
          "type": "string"
        }
      ],
      "stateMutability": "view",
      "type": "function"
    }
  ],
  "bytecode": "0x608060405234801561001057600080fd5b506121f5806100206000396000f3fe60806040523480156200001157600080fd5b50600436106200003a5760003560e01c80638ef7db11146200003f578063c67596ff1462000077575b600080fd5b6200005d600480360381019062000057919062000672565b62000097565b6040516200006e9392919062000790565b60405180910390f35b6200009560048036038101906200008f9190620006a4565b620003a8565b005b600060608060008060008673ffffffffffffffffffffffffffffffffffffffff1673ffffffffffffffffffffffffffffffffffffffff16815260200190815260200160002060000160009054906101000a900473ffffffffffffffffffffffffffffffffffffffff169050600073ffffffffffffffffffffffffffffffffffffffff168173ffffffffffffffffffffffffffffffffffffffff1614156200018d576000604051806020016040528060008152506040518060400160405280601381526020017f43726561746520616e20656c656374696f6e2e0000000000000000000000000081525093509350935050620003a1565b6000808673ffffffffffffffffffffffffffffffffffffffff1673ffffffffffffffffffffffffffffffffffffffff16815260200190815260200160002060000160009054906101000a900473ffffffffffffffffffffffffffffffffffffffff166000808773ffffffffffffffffffffffffffffffffffffffff1673ffffffffffffffffffffffffffffffffffffffff1681526020019081526020016000206001016000808873ffffffffffffffffffffffffffffffffffffffff1673ffffffffffffffffffffffffffffffffffffffff1681526020019081526020016000206002018180546200027f90620008cf565b80601f0160208091040260200160405190810160405280929190818152602001828054620002ad90620008cf565b8015620002fe5780601f10620002d257610100808354040283529160200191620002fe565b820191906000526020600020905b815481529060010190602001808311620002e057829003601f168201915b505050505091508080546200031390620008cf565b80601f01602080910402602001604051908101604052809291908181526020018280546200034190620008cf565b8015620003925780601f10620003665761010080835404028352916020019162000392565b820191906000526020600020905b8154815290600101906020018083116200037457829003601f168201915b50505050509050935093509350505b9193909250565b6000338383604051620003bb906200051f565b620003c99392919062000790565b604051809103906000f080158015620003e6573d6000803e3d6000fd5b509050806000808673ffffffffffffffffffffffffffffffffffffffff1673ffffffffffffffffffffffffffffffffffffffff16815260200190815260200160002060000160006101000a81548173ffffffffffffffffffffffffffffffffffffffff021916908373ffffffffffffffffffffffffffffffffffffffff160217905550826000808673ffffffffffffffffffffffffffffffffffffffff1673ffffffffffffffffffffffffffffffffffffffff1681526020019081526020016000206001019080519060200190620004c09291906200052d565b50816000808673ffffffffffffffffffffffffffffffffffffffff1673ffffffffffffffffffffffffffffffffffffffff1681526020019081526020016000206002019080519060200190620005189291906200052d565b5050505050565b6117e780620009d983390190565b8280546200053b90620008cf565b90600052602060002090601f0160209004810192826200055f5760008555620005ab565b82601f106200057a57805160ff1916838001178555620005ab565b82800160010185558215620005ab579182015b82811115620005aa5782518255916020019190600101906200058d565b5b509050620005ba9190620005be565b5090565b5b80821115620005d9576000816000905550600101620005bf565b5090565b6000620005f4620005ee8462000804565b620007db565b9050828152602081018484840111156200061357620006126200099e565b5b620006208482856200088a565b509392505050565b6000813590506200063981620009be565b92915050565b600082601f83011262000657576200065662000999565b5b813562000669848260208601620005dd565b91505092915050565b6000602082840312156200068b576200068a620009a8565b5b60006200069b8482850162000628565b91505092915050565b600080600060608486031215620006c057620006bf620009a8565b5b6000620006d08682870162000628565b935050602084013567ffffffffffffffff811115620006f457620006f3620009a3565b5b62000702868287016200063f565b925050604084013567ffffffffffffffff811115620007265762000725620009a3565b5b62000734868287016200063f565b9150509250925092565b620007498162000856565b82525050565b60006200075c826200083a565b62000768818562000845565b93506200077a81856020860162000899565b6200078581620009ad565b840191505092915050565b6000606082019050620007a760008301866200073e565b8181036020830152620007bb81856200074f565b90508181036040830152620007d181846200074f565b9050949350505050565b6000620007e7620007fa565b9050620007f5828262000905565b919050565b6000604051905090565b600067ffffffffffffffff8211156200082257620008216200096a565b5b6200082d82620009ad565b9050602081019050919050565b600081519050919050565b600082825260208201905092915050565b600062000863826200086a565b9050919050565b600073ffffffffffffffffffffffffffffffffffffffff82169050919050565b82818337600083830152505050565b60005b83811015620008b95780820151818401526020810190506200089c565b83811115620008c9576000848401525b50505050565b60006002820490506001821680620008e857607f821691505b60208210811415620008ff57620008fe6200093b565b5b50919050565b6200091082620009ad565b810181811067ffffffffffffffff821117156200093257620009316200096a565b5b80604052505050565b7f4e487b7100000000000000000000000000000000000000000000000000000000600052602260045260246000fd5b7f4e487b7100000000000000000000000000000000000000000000000000000000600052604160045260246000fd5b600080fd5b600080fd5b600080fd5b600080fd5b6000601f19601f8301169050919050565b620009c98162000856565b8114620009d557600080fd5b5056fe60806040523480156200001157600080fd5b50604051620017e7380380620017e7833981810160405281019062000037919062000212565b826000806101000a81548173ffffffffffffffffffffffffffffffffffffffff021916908373ffffffffffffffffffffffffffffffffffffffff16021790555081600190805190602001906200008f929190620000cd565b508060029080519060200190620000a8929190620000cd565b506001600360006101000a81548160ff0219169083151502179055505050506200047e565b828054620000db9062000375565b90600052602060002090601f016020900481019282620000ff57600085556200014b565b82601f106200011a57805160ff19168380011785556200014b565b828001600101855582156200014b579182015b828111156200014a5782518255916020019190600101906200012d565b5b5090506200015a91906200015e565b5090565b5b80821115620001795760008160009055506001016200015f565b5090565b6000620001946200018e84620002d5565b620002ac565b905082815260208101848484011115620001b357620001b262000444565b5b620001c08482856200033f565b509392505050565b600081519050620001d98162000464565b92915050565b600082601f830112620001f757620001f66200043f565b5b8151620002098482602086016200017d565b91505092915050565b6000806000606084860312156200022e576200022d6200044e565b5b60006200023e86828701620001c8565b935050602084015167ffffffffffffffff81111562000262576200026162000449565b5b6200027086828701620001df565b925050604084015167ffffffffffffffff81111562000294576200029362000449565b5b620002a286828701620001df565b9150509250925092565b6000620002b8620002cb565b9050620002c68282620003ab565b919050565b6000604051905090565b600067ffffffffffffffff821115620002f357620002f262000410565b5b620002fe8262000453565b9050602081019050919050565b600062000318826200031f565b9050919050565b600073ffffffffffffffffffffffffffffffffffffffff82169050919050565b60005b838110156200035f57808201518184015260208101905062000342565b838111156200036f576000848401525b50505050565b600060028204905060018216806200038e57607f821691505b60208210811415620003a557620003a4620003e1565b5b50919050565b620003b68262000453565b810181811067ffffffffffffffff82111715620003d857620003d762000410565b5b80604052505050565b7f4e487b7100000000000000000000000000000000000000000000000000000000600052602260045260246000fd5b7f4e487b7100000000000000000000000000000000000000000000000000000000600052604160045260246000fd5b600080fd5b600080fd5b600080fd5b600080fd5b6000601f19601f8301169050919050565b6200046f816200030b565b81146200047b57600080fd5b50565b611359806200048e6000396000f3fe608060405234801561001057600080fd5b50600436106100885760003560e01c8063b224c40a1161005b578063b224c40a14610119578063cde9370f14610135578063e8685ba114610169578063ed836bc31461018757610088565b806342b03cc91461008d57806365fc783c146100a95780636d6277f4146100c7578063a15148d1146100fb575b600080fd5b6100a760048036038101906100a29190610de4565b6101a6565b005b6100b1610349565b6040516100be91906110bd565b60405180910390f35b6100e160048036038101906100dc9190610ebb565b610360565b6040516100f295949392919061102e565b60405180910390f35b6101036105c3565b60405161011091906110bd565b60405180910390f35b610133600480360381019061012e9190610ee8565b61071e565b005b61014f600480360381019061014a9190610ebb565b610898565b60405161016095949392919061102e565b60405180910390f35b610171610b7e565b60405161017e91906110bd565b60405180910390f35b61018f610b95565b60405161019d929190610ff7565b60405180910390f35b60008054906101000a900473ffffffffffffffffffffffffffffffffffffffff1673ffffffffffffffffffffffffffffffffffffffff163373ffffffffffffffffffffffffffffffffffffffff161461022b576040517fe60de15100000000000000000000000000000000000000000000000000000000815260040160405180910390fd5b60006006600081819054906101000a900460ff168092919061024c90611207565b91906101000a81548160ff021916908360ff16021790555090506040518060a00160405280868152602001858152602001848152602001600060ff16815260200183815250600460008360ff1660ff16815260200190815260200160002060008201518160000190805190602001906102c6929190610cbc565b5060208201518160010190805190602001906102e3929190610cbc565b506040820151816002019080519060200190610300929190610cbc565b5060608201518160030160006101000a81548160ff021916908360ff160217905550608082015181600401908051906020019061033e929190610cbc565b509050505050505050565b6000600660019054906101000a900460ff16905090565b6004602052806000526040600020600091509050806000018054610383906111a4565b80601f01602080910402602001604051908101604052809291908181526020018280546103af906111a4565b80156103fc5780601f106103d1576101008083540402835291602001916103fc565b820191906000526020600020905b8154815290600101906020018083116103df57829003601f168201915b505050505090806001018054610411906111a4565b80601f016020809104026020016040519081016040528092919081815260200182805461043d906111a4565b801561048a5780601f1061045f5761010080835404028352916020019161048a565b820191906000526020600020905b81548152906001019060200180831161046d57829003601f168201915b50505050509080600201805461049f906111a4565b80601f01602080910402602001604051908101604052809291908181526020018280546104cb906111a4565b80156105185780601f106104ed57610100808354040283529160200191610518565b820191906000526020600020905b8154815290600101906020018083116104fb57829003601f168201915b5050505050908060030160009054906101000a900460ff1690806004018054610540906111a4565b80601f016020809104026020016040519081016040528092919081815260200182805461056c906111a4565b80156105b95780601f1061058e576101008083540402835291602001916105b9565b820191906000526020600020905b81548152906001019060200180831161059c57829003601f168201915b5050505050905085565b60008060009054906101000a900473ffffffffffffffffffffffffffffffffffffffff1673ffffffffffffffffffffffffffffffffffffffff163373ffffffffffffffffffffffffffffffffffffffff161461064b576040517fe60de15100000000000000000000000000000000000000000000000000000000815260040160405180910390fd5b6000600460008060ff16815260200190815260200160002060030160009054906101000a900460ff169050600080600190505b600660009054906101000a900460ff1660ff168160ff16101561071557600460008260ff1660ff16815260200190815260200160002060030160009054906101000a900460ff1660ff168360ff16101561070257600460008260ff1660ff16815260200190815260200160002060030160009054906101000a900460ff1692508091505b808061070d90611207565b91505061067e565b50809250505090565b60058160405161072e9190610fe0565b908152602001604051809103902060000160019054906101000a900460ff161561078d576040517f08c379a00000000000000000000000000000000000000000000000000000000081526004016107849061109d565b60405180910390fd5b60405180604001604052808360ff168152602001600115158152506005826040516107b89190610fe0565b908152602001604051809103902060008201518160000160006101000a81548160ff021916908360ff16021790555060208201518160000160016101000a81548160ff0219169083151502179055509050506006600181819054906101000a900460ff168092919061082990611207565b91906101000a81548160ff021916908360ff16021790555050600460008360ff1660ff168152602001908152602001600020600301600081819054906101000a900460ff168092919061087b90611207565b91906101000a81548160ff021916908360ff160217905550505050565b606080606060006060600460008760ff1660ff168152602001908152602001600020600001600460008860ff1660ff168152602001908152602001600020600101600460008960ff1660ff168152602001908152602001600020600201600460008a60ff1660ff16815260200190815260200160002060030160009054906101000a900460ff16600460008b60ff1660ff168152602001908152602001600020600401848054610947906111a4565b80601f0160208091040260200160405190810160405280929190818152602001828054610973906111a4565b80156109c05780601f10610995576101008083540402835291602001916109c0565b820191906000526020600020905b8154815290600101906020018083116109a357829003601f168201915b505050505094508380546109d3906111a4565b80601f01602080910402602001604051908101604052809291908181526020018280546109ff906111a4565b8015610a4c5780601f10610a2157610100808354040283529160200191610a4c565b820191906000526020600020905b815481529060010190602001808311610a2f57829003601f168201915b50505050509350828054610a5f906111a4565b80601f0160208091040260200160405190810160405280929190818152602001828054610a8b906111a4565b8015610ad85780601f10610aad57610100808354040283529160200191610ad8565b820191906000526020600020905b815481529060010190602001808311610abb57829003601f168201915b50505050509250808054610aeb906111a4565b80601f0160208091040260200160405190810160405280929190818152602001828054610b17906111a4565b8015610b645780601f10610b3957610100808354040283529160200191610b64565b820191906000526020600020905b815481529060010190602001808311610b4757829003601f168201915b505050505090509450945094509450945091939590929450565b6000600660009054906101000a900460ff16905090565b60608060016002818054610ba8906111a4565b80601f0160208091040260200160405190810160405280929190818152602001828054610bd4906111a4565b8015610c215780601f10610bf657610100808354040283529160200191610c21565b820191906000526020600020905b815481529060010190602001808311610c0457829003601f168201915b50505050509150808054610c34906111a4565b80601f0160208091040260200160405190810160405280929190818152602001828054610c60906111a4565b8015610cad5780601f10610c8257610100808354040283529160200191610cad565b820191906000526020600020905b815481529060010190602001808311610c9057829003601f168201915b50505050509050915091509091565b828054610cc8906111a4565b90600052602060002090601f016020900481019282610cea5760008555610d31565b82601f10610d0357805160ff1916838001178555610d31565b82800160010185558215610d31579182015b82811115610d30578251825591602001919060010190610d15565b5b509050610d3e9190610d42565b5090565b5b80821115610d5b576000816000905550600101610d43565b5090565b6000610d72610d6d846110fd565b6110d8565b905082815260208101848484011115610d8e57610d8d6112c3565b5b610d99848285611162565b509392505050565b600082601f830112610db657610db56112be565b5b8135610dc6848260208601610d5f565b91505092915050565b600081359050610dde8161130c565b92915050565b60008060008060808587031215610dfe57610dfd6112cd565b5b600085013567ffffffffffffffff811115610e1c57610e1b6112c8565b5b610e2887828801610da1565b945050602085013567ffffffffffffffff811115610e4957610e486112c8565b5b610e5587828801610da1565b935050604085013567ffffffffffffffff811115610e7657610e756112c8565b5b610e8287828801610da1565b925050606085013567ffffffffffffffff811115610ea357610ea26112c8565b5b610eaf87828801610da1565b91505092959194509250565b600060208284031215610ed157610ed06112cd565b5b6000610edf84828501610dcf565b91505092915050565b60008060408385031215610eff57610efe6112cd565b5b6000610f0d85828601610dcf565b925050602083013567ffffffffffffffff811115610f2e57610f2d6112c8565b5b610f3a85828601610da1565b9150509250929050565b6000610f4f8261112e565b610f598185611139565b9350610f69818560208601611171565b610f72816112d2565b840191505092915050565b6000610f888261112e565b610f92818561114a565b9350610fa2818560208601611171565b80840191505092915050565b6000610fbb601c83611139565b9150610fc6826112e3565b602082019050919050565b610fda81611155565b82525050565b6000610fec8284610f7d565b915081905092915050565b600060408201905081810360008301526110118185610f44565b905081810360208301526110258184610f44565b90509392505050565b600060a08201905081810360008301526110488188610f44565b9050818103602083015261105c8187610f44565b905081810360408301526110708186610f44565b905061107f6060830185610fd1565b81810360808301526110918184610f44565b90509695505050505050565b600060208201905081810360008301526110b681610fae565b9050919050565b60006020820190506110d26000830184610fd1565b92915050565b60006110e26110f3565b90506110ee82826111d6565b919050565b6000604051905090565b600067ffffffffffffffff8211156111185761111761128f565b5b611121826112d2565b9050602081019050919050565b600081519050919050565b600082825260208201905092915050565b600081905092915050565b600060ff82169050919050565b82818337600083830152505050565b60005b8381101561118f578082015181840152602081019050611174565b8381111561119e576000848401525b50505050565b600060028204905060018216806111bc57607f821691505b602082108114156111d0576111cf611260565b5b50919050565b6111df826112d2565b810181811067ffffffffffffffff821117156111fe576111fd61128f565b5b80604052505050565b600061121282611155565b915060ff82141561122657611225611231565b5b600182019050919050565b7f4e487b7100000000000000000000000000000000000000000000000000000000600052601160045260246000fd5b7f4e487b7100000000000000000000000000000000000000000000000000000000600052602260045260246000fd5b7f4e487b7100000000000000000000000000000000000000000000000000000000600052604160045260246000fd5b600080fd5b600080fd5b600080fd5b600080fd5b6000601f19601f8301169050919050565b7f4572726f723a596f752063616e6e6f7420646f75626c6520766f746500000000600082015250565b61131581611155565b811461132057600080fd5b5056fea2646970667358221220149fa507d0e58f3e1e72cbdcd085bceee4e71733b5fe3b51f21253c403370a0864736f6c63430008070033a26469706673582212200283dce4c9ae0706b094ee85834d046770bb1b688d9804246bd36b791e3997fb64736f6c63430008070033",
  "linkReferences": {},
  "deployedLinkReferences": {}
}